:100000000C9434000C9451000C9451000C94510049
:100010000C9451000C9451000C9451000C9451001C
:100020000C9451000C9451000C9451000C94E40178
:100030000C94F3000C9451000C9458010C94A301FF
:100040000C9451000C9451000C9451000C945100EC
:100050000C9451000C9451000C9451000C945100DC
:100060000C9451000C94510011241FBECFEFD8E026
:10007000DEBFCDBF11E0A0E0B1E0E6EFF4E002C0EA
:1000800005900D92A430B107D9F721E0A4E0B1E0CA
:1000900001C01D92A931B207E1F70E9453000C94F0
:1000A00079020C940000CF93DF9300D000D0CDB73D
:1000B000DEB70E94170261E085E00E944E020E94B6
:1000C000EE010E94E6000E948F00789445E06AE00D
:1000D00070E081E390E00E94AD010E94D80145E00C
:1000E0006AE070E08AE090E00E9437010E944C01D3
:1000F00019821A821B821C820E94F50183EC99E00E
:100100000197F1F700C000000E94F50183EC99E02F
:100110000197F1F700C000000E949E00EDCF109201
:100120000A01109206011092070110920801109224
:1001300009011092050110920401089580911001A7
:1001400090911101A0911201B09113010A97A1059C
:10015000B10548F16091000170E083E090E00E94F9
:100160004E029091000181E0911180E080930001A6
:1001700080910A018830E8F080910A018D30C8F43E
:10018000109205016091050170E082E090E00E940C
:100190004E02109210011092110110921201109251
:1001A000130110920A01809118018F5F809318014A
:1001B000089581E080930501E5CF809105010895C0
:1001C00080910A018F5F80930A010895F89484B7A3
:1001D000877F84BFE0E6F0E08081886180838CE0E7
:1001E0008083789408951F920F920FB60F92112476
:1001F0002F933F934F935F936F937F938F939F932F
:10020000AF93BF93EF93FF93CF93DF931F92CDB73D
:10021000DEB70E94DD00898380911801823060F092
:10022000898181111DC070E060E090E080E00E9453
:100230004E02A895109218010F90DF91CF91FF9177
:10024000EF91BF91AF919F918F917F916F915F914E
:100250004F913F912F910F900FBE0F901F901895C7
:1002600061E070E081E090E00E944E02E5CF94B53D
:10027000926094BD87BD68BD85B5482B45BD089586
:1002800085B5816085BD089585B5887F85BD089554
:1002900087BD089588BD0895EEE6F0E08081826014
:1002A00080830895EEE6F0E0808184608083089585
:1002B0001F920F920FB60F9211248F939F93AF93BB
:1002C000BF938091140190911501A0911601B091F6
:1002D00017010196A11DB11D809314019093150182
:1002E000A0931601B0931701809110019091110114
:1002F000A0911201B09113010196A11DB11D80932F
:10030000100190931101A0931201B09313018091F9
:100310000C0190910D01A0910E01B0910F01019679
:10032000A11DB11D80930C0190930D01A0930E01AE
:10033000B0930F01BF91AF919F918F910F900FBE1E
:100340000F901F9018951F920F920FB60F921124C5
:100350000F900FBE0F901F9018959C011092800077
:10036000E1E8F0E0108290819860908330938900FA
:100370002093880070938B0060938A008081482BC3
:1003800040830895E1E8F0E08081836080830895F0
:10039000E1E8F0E08081887F808308959093890070
:1003A00080938800089590938B0080938A0008952D
:1003B000EFE6F0E08081826080830895EFE6F0E070
:1003C00080818460808308951F920F920FB60F92F0
:1003D00011240F900FBE0F901F9018950E941702C6
:1003E0006091020184E00C944E0280910C01909186
:1003F0000D01A0910E01B0910F01C297A105B105A9
:10040000A0F09091020181E0911180E080930201BF
:100410006091020184E00E944E0210920C01109241
:100420000D0110920E0110920F010C94E0008AB1A0
:100430009BB1ACB1BDB180628AB99BB9ACB9BDB951
:100440008AB19BB1ACB1BDB180618AB99BB9ACB97D
:10045000BDB98AB19BB1ACB1BDB188608AB99BB955
:10046000ACB9BDB98AB19BB1ACB1BDB184608AB938
:100470009BB9ACB9BDB98AB19BB1ACB1BDB1826019
:100480008AB99BB9ACB9BDB98AB19BB1ACB1BDB1A8
:1004900081608AB99BB9ACB9BDB9089521E030E05B
:1004A000A90102C0440F551F8A95E2F7CA016623CD
:1004B00089F04BB15CB16DB17EB1092E000CAA0B75
:1004C000BB0B842B952BA62BB72B8BB99CB9ADB945
:1004D000BEB908954BB15CB16DB17EB18095909578
:1004E000092E000CAA0BBB0B84239523A623B7234C
:0604F000ECCFF894FFCFF1
:0404F60001010100FF
:00000001FF
